{
  "contractName": "Bid",
  "abi": [
    {
      "inputs": [],
      "payable": false,
      "stateMutability": "nonpayable",
      "type": "constructor"
    },
    {
      "anonymous": false,
      "inputs": [
        {
          "indexed": false,
          "internalType": "uint256",
          "name": "user_id",
          "type": "uint256"
        },
        {
          "indexed": false,
          "internalType": "string",
          "name": "color",
          "type": "string"
        },
        {
          "indexed": false,
          "internalType": "address",
          "name": "user_address",
          "type": "address"
        },
        {
          "indexed": false,
          "internalType": "uint256",
          "name": "bid_amount",
          "type": "uint256"
        },
        {
          "indexed": false,
          "internalType": "string",
          "name": "profile_pic",
          "type": "string"
        }
      ],
      "name": "Player_event",
      "type": "event"
    },
    {
      "constant": true,
      "inputs": [],
      "name": "owner",
      "outputs": [
        {
          "internalType": "address",
          "name": "",
          "type": "address"
        }
      ],
      "payable": false,
      "stateMutability": "view",
      "type": "function"
    },
    {
      "constant": true,
      "inputs": [
        {
          "internalType": "uint256",
          "name": "",
          "type": "uint256"
        }
      ],
      "name": "players",
      "outputs": [
        {
          "internalType": "uint256",
          "name": "user_id",
          "type": "uint256"
        },
        {
          "internalType": "string",
          "name": "color",
          "type": "string"
        },
        {
          "internalType": "address",
          "name": "user_address",
          "type": "address"
        },
        {
          "internalType": "uint256",
          "name": "bid_amount",
          "type": "uint256"
        },
        {
          "internalType": "string",
          "name": "profile_pic",
          "type": "string"
        }
      ],
      "payable": false,
      "stateMutability": "view",
      "type": "function"
    },
    {
      "constant": true,
      "inputs": [],
      "name": "timer_for_bid",
      "outputs": [
        {
          "internalType": "uint256",
          "name": "",
          "type": "uint256"
        }
      ],
      "payable": false,
      "stateMutability": "view",
      "type": "function"
    },
    {
      "constant": true,
      "inputs": [],
      "name": "timer_for_view",
      "outputs": [
        {
          "internalType": "uint256",
          "name": "",
          "type": "uint256"
        }
      ],
      "payable": false,
      "stateMutability": "view",
      "type": "function"
    },
    {
      "constant": true,
      "inputs": [],
      "name": "user_id",
      "outputs": [
        {
          "internalType": "uint256",
          "name": "",
          "type": "uint256"
        }
      ],
      "payable": false,
      "stateMutability": "view",
      "type": "function"
    },
    {
      "constant": false,
      "inputs": [
        {
          "internalType": "string",
          "name": "_color",
          "type": "string"
        },
        {
          "internalType": "address",
          "name": "_user_address",
          "type": "address"
        },
        {
          "internalType": "uint256",
          "name": "_bid_amount",
          "type": "uint256"
        },
        {
          "internalType": "string",
          "name": "_profile_pic",
          "type": "string"
        }
      ],
      "name": "bid",
      "outputs": [],
      "payable": false,
      "stateMutability": "nonpayable",
      "type": "function"
    },
    {
      "constant": true,
      "inputs": [],
      "name": "get_all_users",
      "outputs": [
        {
          "components": [
            {
              "internalType": "uint256",
              "name": "user_id",
              "type": "uint256"
            },
            {
              "internalType": "string",
              "name": "color",
              "type": "string"
            },
            {
              "internalType": "address",
              "name": "user_address",
              "type": "address"
            },
            {
              "internalType": "uint256",
              "name": "bid_amount",
              "type": "uint256"
            },
            {
              "internalType": "string",
              "name": "profile_pic",
              "type": "string"
            }
          ],
          "internalType": "struct Information.Player[]",
          "name": "",
          "type": "tuple[]"
        }
      ],
      "payable": false,
      "stateMutability": "view",
      "type": "function"
    },
    {
      "constant": true,
      "inputs": [],
      "name": "get_color_users_count",
      "outputs": [
        {
          "internalType": "uint256",
          "name": "",
          "type": "uint256"
        },
        {
          "internalType": "uint256",
          "name": "",
          "type": "uint256"
        }
      ],
      "payable": false,
      "stateMutability": "view",
      "type": "function"
    }
  ],
  "bytecode": "0x608060405234801561001057600080fd5b50336000806101000a81548173ffffffffffffffffffffffffffffffffffffffff021916908373ffffffffffffffffffffffffffffffffffffffff160217905550603c420160028190555060784201600381905550611406806100746000396000f3fe608060405234801561001057600080fd5b50600436106100885760003560e01c8063bb5d88fa1161005b578063bb5d88fa14610106578063e04070aa14610124578063f71d96cb14610142578063f89b085a1461017657610088565b806307f253781461008d5780636fa591f2146100ab5780638a4b53fe146100ca5780638da5cb5b146100e8575b600080fd5b610095610192565b6040516100a29190611116565b60405180910390f35b6100b3610198565b6040516100c19291906111f3565b60405180910390f35b6100d261029f565b6040516100df9190611116565b60405180910390f35b6100f06102a5565b6040516100fd9190611079565b60405180910390f35b61010e6102ca565b60405161011b9190611116565b60405180910390f35b61012c6102d0565b6040516101399190611094565b60405180910390f35b61015c60048036036101579190810190610c54565b6105bc565b60405161016d959493929190611192565b60405180910390f35b610190600480360361018b9190810190610bc1565b610742565b005b60025481565b60008060008060008090505b6001548110156102925760006005600060018401815260200190815260200160002090506040516020016101d79061104f565b60405160208183030381529060405280519060200120816001016040516020016102019190611038565b6040516020818303038152906040528051906020012014156102265783806001019450505b60405160200161023590611064565b604051602081830303815290604052805190602001208160010160405160200161025f9190611038565b6040516020818303038152906040528051906020012014156102845782806001019350505b5080806001019150506101a4565b5081819350935050509091565b60035481565b6000809054906101000a900473ffffffffffffffffffffffffffffffffffffffff1681565b60015481565b6060426003541015610317576040517f08c379a000000000000000000000000000000000000000000000000000000000815260040161030e906110f6565b60405180910390fd5b6060600a6001541161032b5760015461032e565b600a5b60405190808252806020026020018201604052801561036757816020015b610354610a59565b81526020019060019003908161034c5790505b5090506000809050600a600154111561039757610390600a60015461096b90919063ffffffff16565b905061039c565b600090505b600080905060008290505b6001548110156105b2576000600560006001840181526020019081526020016000209050806040518060a001604052908160008201548152602001600182018054600181600116156101000203166002900480601f01602080910402602001604051908101604052809291908181526020018280546001816001161561010002031660029004801561047a5780601f1061044f5761010080835404028352916020019161047a565b820191906000526020600020905b81548152906001019060200180831161045d57829003601f168201915b505050505081526020016002820160009054906101000a900473ffffffffffffffffffffffffffffffffffffffff1673ffffffffffffffffffffffffffffffffffffffff1673ffffffffffffffffffffffffffffffffffffffff16815260200160038201548152602001600482018054600181600116156101000203166002900480601f01602080910402602001604051908101604052809291908181526020018280546001816001161561010002031660029004801561057c5780601f106105515761010080835404028352916020019161057c565b820191906000526020600020905b81548152906001019060200180831161055f57829003601f168201915b50505050508152505085848151811061059157fe5b602002602001018190525082806001019350505080806001019150506103a7565b5082935050505090565b6005602052806000526040600020600091509050806000015490806001018054600181600116156101000203166002900480601f01602080910402602001604051908101604052809291908181526020018280546001816001161561010002031660029004801561066e5780601f106106435761010080835404028352916020019161066e565b820191906000526020600020905b81548152906001019060200180831161065157829003601f168201915b5050505050908060020160009054906101000a900473ffffffffffffffffffffffffffffffffffffffff1690806003015490806004018054600181600116156101000203166002900480601f0160208091040260200160405190810160405280929190818152602001828054600181600116156101000203166002900480156107385780601f1061070d57610100808354040283529160200191610738565b820191906000526020600020905b81548152906001019060200180831161071b57829003601f168201915b5050505050905085565b61074b8361098b565b1561078b576040517f08c379a0000000000000000000000000000000000000000000000000000000008152600401610782906110d6565b60405180910390fd5b4260025410156107d0576040517f08c379a00000000000000000000000000000000000000000000000000000000081526004016107c7906110f6565b60405180910390fd5b60006107e6600a84610a3390919063ffffffff16565b14610826576040517f08c379a000000000000000000000000000000000000000000000000000000000815260040161081d906110b6565b60405180910390fd5b6001600081548092919060010191905055506040518060a0016040528060015481526020018581526020018473ffffffffffffffffffffffffffffffffffffffff168152602001838152602001828152506005600060015481526020019081526020016000206000820151816000015560208201518160010190805190602001906108b2929190610a9e565b5060408201518160020160006101000a81548173ffffffffffffffffffffffffffffffffffffffff021916908373ffffffffffffffffffffffffffffffffffffffff160217905550606082015181600301556080820151816004019080519060200190610920929190610a9e565b509050507f6ae8a6f8db47c3762717ed12e265e6d8eb606c834515ce5616a4853c04cb58586001548585858560405161095d959493929190611131565b60405180910390a150505050565b60008282111561097a57600080fd5b600082840390508091505092915050565b600080600090505b600154811015610a285760006005600060018401815260200190815260200160002090508373ffffffffffffffffffffffffffffffffffffffff168160020160009054906101000a900473ffffffffffffffffffffffffffffffffffffffff1673ffffffffffffffffffffffffffffffffffffffff161415610a1a57600192505050610a2e565b508080600101915050610993565b50600090505b919050565b6000808211610a4157600080fd5b6000828481610a4c57fe5b0690508091505092915050565b6040518060a001604052806000815260200160608152602001600073ffffffffffffffffffffffffffffffffffffffff16815260200160008152602001606081525090565b828054600181600116156101000203166002900490600052602060002090601f016020900481019282601f10610adf57805160ff1916838001178555610b0d565b82800160010185558215610b0d579182015b82811115610b0c578251825591602001919060010190610af1565b5b509050610b1a9190610b1e565b5090565b610b4091905b80821115610b3c576000816000905550600101610b24565b5090565b90565b600081359050610b5281611395565b92915050565b600082601f830112610b6957600080fd5b8135610b7c610b7782611249565b61121c565b91508082526020830160208301858383011115610b9857600080fd5b610ba3838284611342565b50505092915050565b600081359050610bbb816113ac565b92915050565b60008060008060808587031215610bd757600080fd5b600085013567ffffffffffffffff811115610bf157600080fd5b610bfd87828801610b58565b9450506020610c0e87828801610b43565b9350506040610c1f87828801610bac565b925050606085013567ffffffffffffffff811115610c3c57600080fd5b610c4887828801610b58565b91505092959194509250565b600060208284031215610c6657600080fd5b6000610c7484828501610bac565b91505092915050565b6000610c898383610f9d565b905092915050565b610c9a81611306565b82525050565b610ca981611306565b82525050565b6000610cba8261129a565b610cc481856112c8565b935083602082028501610cd685611275565b8060005b85811015610d125784840389528151610cf38582610c7d565b9450610cfe836112bb565b925060208a01995050600181019050610cda565b50829750879550505050505092915050565b6000610d2f826112b0565b610d3981856112ea565b9350610d49818560208601611351565b610d5281611384565b840191505092915050565b6000610d68826112a5565b610d7281856112d9565b9350610d82818560208601611351565b610d8b81611384565b840191505092915050565b6000610da1826112a5565b610dab81856112ea565b9350610dbb818560208601611351565b610dc481611384565b840191505092915050565b600081546001811660008114610dec5760018114610e1157610e55565b607f6002830416610dfd81876112fb565b955060ff1983168652808601935050610e55565b60028204610e1f81876112fb565b9550610e2a85611285565b60005b82811015610e4c57815481890152600182019150602081019050610e2d565b82880195505050505b505092915050565b6000610e6a6016836112ea565b91507f4d757374206265206d756c7469706c65206f66203130000000000000000000006000830152602082019050919050565b6000610eaa600e836112ea565b91507f416c7265616479206120757365720000000000000000000000000000000000006000830152602082019050919050565b6000610eea6003836112fb565b91507f72656400000000000000000000000000000000000000000000000000000000006000830152600382019050919050565b6000610f2a6008836112ea565b91507f54696d65732075700000000000000000000000000000000000000000000000006000830152602082019050919050565b6000610f6a6005836112fb565b91507f677265656e0000000000000000000000000000000000000000000000000000006000830152600582019050919050565b600060a083016000830151610fb5600086018261101a565b5060208301518482036020860152610fcd8282610d5d565b9150506040830151610fe26040860182610c91565b506060830151610ff5606086018261101a565b506080830151848203608086015261100d8282610d5d565b9150508091505092915050565b61102381611338565b82525050565b61103281611338565b82525050565b60006110448284610dcf565b915081905092915050565b600061105a82610edd565b9150819050919050565b600061106f82610f5d565b9150819050919050565b600060208201905061108e6000830184610ca0565b92915050565b600060208201905081810360008301526110ae8184610caf565b905092915050565b600060208201905081810360008301526110cf81610e5d565b9050919050565b600060208201905081810360008301526110ef81610e9d565b9050919050565b6000602082019050818103600083015261110f81610f1d565b9050919050565b600060208201905061112b6000830184611029565b92915050565b600060a0820190506111466000830188611029565b81810360208301526111588187610d24565b90506111676040830186610ca0565b6111746060830185611029565b81810360808301526111868184610d24565b90509695505050505050565b600060a0820190506111a76000830188611029565b81810360208301526111b98187610d96565b90506111c86040830186610ca0565b6111d56060830185611029565b81810360808301526111e78184610d96565b90509695505050505050565b60006040820190506112086000830185611029565b6112156020830184611029565b9392505050565b6000604051905081810181811067ffffffffffffffff8211171561123f57600080fd5b8060405250919050565b600067ffffffffffffffff82111561126057600080fd5b601f19601f8301169050602081019050919050565b6000819050602082019050919050565b60008190508160005260206000209050919050565b600081519050919050565b600081519050919050565b600081519050919050565b6000602082019050919050565b600082825260208201905092915050565b600082825260208201905092915050565b600082825260208201905092915050565b600081905092915050565b600061131182611318565b9050919050565b600073ffffffffffffffffffffffffffffffffffffffff82169050919050565b6000819050919050565b82818337600083830152505050565b60005b8381101561136f578082015181840152602081019050611354565b8381111561137e576000848401525b50505050565b6000601f19601f8301169050919050565b61139e81611306565b81146113a957600080fd5b50565b6113b581611338565b81146113c057600080fd5b5056fea365627a7a72315820388405c8edccf53f50b2824f00998f29bac169afc1a99da8024331eefcc403006c6578706572696d656e74616cf564736f6c63430005100040",
  "source": "// SPDX-License-Identifier: MIT\r\npragma solidity >=0.4.22 <0.8.0;\r\npragma experimental ABIEncoderV2;\r\n\r\ninterface Information {\r\n    struct Player {\r\n        uint256 user_id;\r\n        string color;\r\n        address user_address;\r\n        uint256 bid_amount;\r\n        string profile_pic;\r\n    }\r\n\r\n    event Player_event(\r\n        uint256 user_id,\r\n        string color,\r\n        address user_address,\r\n        uint256 bid_amount,\r\n        string profile_pic\r\n    );\r\n\r\n    function bid(\r\n        string calldata _color,\r\n        address _user_address,\r\n        uint256 _bid_amount,\r\n        string calldata _profile_pic\r\n    ) external;\r\n\r\n    function get_all_users() external view returns (Player[] memory);\r\n}\r\n\r\ncontract Bid is Information {\r\n\r\n    using SafeMath for uint256;\r\n\r\n    address public owner;\r\n    uint256 public user_id;\r\n    uint256 public timer_for_bid;\r\n    uint256 public timer_for_view;\r\n    Player[] player;\r\n\r\n    constructor() public {\r\n        owner = msg.sender;\r\n        timer_for_bid = block.timestamp + 60;\r\n        timer_for_view = block.timestamp + 120;\r\n    }\r\n\r\n    mapping(uint256 => Player) public players;\r\n\r\n    function check_user_exist(address _user_address) internal view returns(bool) {\r\n        for (uint256 i = 0; i < user_id; i++) {\r\n            Player storage trrip = players[i + 1];\r\n            if(trrip.user_address == _user_address){\r\n                return true;\r\n            }\r\n        }\r\n        return false;\r\n    }\r\n\r\n    function bid(\r\n        string memory _color,\r\n        address _user_address,\r\n        uint256 _bid_amount,\r\n        string memory _profile_pic\r\n    ) public {\r\n        require(!check_user_exist(_user_address), \"Already a user\");\r\n        require(timer_for_bid >= block.timestamp, \"Times up\");\r\n        require(_bid_amount.mod(10) == 0, \"Must be multiple of 10\");\r\n        user_id++;\r\n        players[user_id] = Player(\r\n            user_id,\r\n            _color,\r\n            _user_address,\r\n            _bid_amount,\r\n            _profile_pic\r\n        );\r\n\r\n        emit Player_event(\r\n            user_id,\r\n            _color,\r\n            _user_address,\r\n            _bid_amount,\r\n            _profile_pic\r\n        );\r\n    }\r\n\r\n    function get_all_users() external view returns (Player[] memory) {\r\n        require(timer_for_view >= block.timestamp, \"Times up\");\r\n        Player[] memory trrips = new Player[](user_id > 10 ? 10 : user_id);\r\n        uint256 limit = 0;\r\n        if (user_id > 10) {\r\n            limit = user_id.sub(10);\r\n        } else {\r\n            limit = 0;\r\n        }\r\n        uint256 j = 0;\r\n        for (uint256 i = limit; i < user_id; i++) {\r\n            Player storage trrip = players[i + 1];\r\n            trrips[j] = trrip;\r\n            j++;\r\n        }\r\n        return (trrips);\r\n    }\r\n\r\n    function get_color_users_count() external view returns(uint256, uint256) {\r\n        uint256 red_length;\r\n        uint256 green_length;\r\n        for (uint256 i = 0; i < user_id; i++) {\r\n            Player storage trrip = players[i + 1];\r\n            if(keccak256(abi.encodePacked(trrip.color)) == keccak256(abi.encodePacked('red'))) {\r\n                red_length++;\r\n            }\r\n            if(keccak256(abi.encodePacked(trrip.color)) == keccak256(abi.encodePacked('green'))) {\r\n                green_length++;\r\n            }\r\n        }\r\n        return (red_length, green_length);\r\n    }\r\n}\r\n\r\n// truffle console\r\n// Bid.deployed().then(i => token = i)\r\n// token.players(1)\r\n// web3.eth.getAccounts().then(i => acc = i)\r\n// token.bid(\"red\", acc[0], 1234, \"qwerty\").then(s => totalSupply = s)\r\n// token.get_all_users().then(s => totalSupply = s)\r\n\r\n// library for maths calculations\r\nlibrary SafeMath {\r\n    function mul(uint256 a, uint256 b) internal pure returns (uint256) {\r\n        if (a == 0) {\r\n            return 0;\r\n        }\r\n\r\n        uint256 c = a * b;\r\n        require(c / a == b);\r\n\r\n        return c;\r\n    }\r\n\r\n    function div(uint256 a, uint256 b) internal pure returns (uint256) {\r\n        require(b > 0);\r\n        uint256 c = a / b;\r\n\r\n        return c;\r\n    }\r\n\r\n    function mod(uint256 a, uint256 b) internal pure returns (uint256) {\r\n        require(b > 0);\r\n        uint256 c = a % b;\r\n\r\n        return c;\r\n    }\r\n\r\n    function sub(uint256 a, uint256 b) internal pure returns (uint256) {\r\n        require(b <= a);\r\n        uint256 c = a - b;\r\n\r\n        return c;\r\n    }\r\n\r\n    function add(uint256 a, uint256 b) internal pure returns (uint256) {\r\n        uint256 c = a + b;\r\n        require(c >= a);\r\n\r\n        return c;\r\n    }\r\n}\r\n",
  "sourcePath": "C:/Users/91700/Desktop/solidity_bid_game/contracts/Bid.sol",
  "compiler": {
    "name": "solc",
    "version": "0.5.16+commit.9c3226ce.Emscripten.clang"
  },
  "schemaVersion": "3.2.3",
  "updatedAt": "2020-10-20T18:38:11.288Z",
  "networkType": "ethereum",
  "devdoc": {
    "methods": {}
  },
  "userdoc": {
    "methods": {}
  }
}